{
  "contractName": "Election",
  "abi": [
    {
      "constant": true,
      "inputs": [],
      "name": "name",
      "outputs": [
        {
          "name": "",
          "type": "string"
        }
      ],
      "payable": false,
      "stateMutability": "view",
      "type": "function"
    },
    {
      "constant": true,
      "inputs": [],
      "name": "candidatesCount",
      "outputs": [
        {
          "name": "",
          "type": "uint256"
        }
      ],
      "payable": false,
      "stateMutability": "view",
      "type": "function"
    },
    {
      "constant": true,
      "inputs": [
        {
          "name": "",
          "type": "uint256"
        }
      ],
      "name": "candidates",
      "outputs": [
        {
          "name": "id",
          "type": "uint256"
        },
        {
          "name": "name",
          "type": "string"
        },
        {
          "name": "voteCount",
          "type": "uint256"
        }
      ],
      "payable": false,
      "stateMutability": "view",
      "type": "function"
    },
    {
      "constant": true,
      "inputs": [],
      "name": "description",
      "outputs": [
        {
          "name": "",
          "type": "string"
        }
      ],
      "payable": false,
      "stateMutability": "view",
      "type": "function"
    },
    {
      "constant": true,
      "inputs": [
        {
          "name": "",
          "type": "address"
        }
      ],
      "name": "voters",
      "outputs": [
        {
          "name": "",
          "type": "bool"
        }
      ],
      "payable": false,
      "stateMutability": "view",
      "type": "function"
    },
    {
      "constant": true,
      "inputs": [],
      "name": "edate",
      "outputs": [
        {
          "name": "",
          "type": "uint256"
        }
      ],
      "payable": false,
      "stateMutability": "view",
      "type": "function"
    },
    {
      "constant": true,
      "inputs": [],
      "name": "sdate",
      "outputs": [
        {
          "name": "",
          "type": "uint256"
        }
      ],
      "payable": false,
      "stateMutability": "view",
      "type": "function"
    },
    {
      "inputs": [
        {
          "name": "_nd",
          "type": "string[]"
        },
        {
          "name": "_se",
          "type": "uint256[]"
        },
        {
          "name": "_candidates",
          "type": "string[]"
        }
      ],
      "payable": false,
      "stateMutability": "nonpayable",
      "type": "constructor"
    },
    {
      "constant": false,
      "inputs": [
        {
          "name": "_candidate",
          "type": "uint256"
        }
      ],
      "name": "vote",
      "outputs": [],
      "payable": false,
      "stateMutability": "nonpayable",
      "type": "function"
    }
  ],
  "bytecode": "0x60806040523480156200001157600080fd5b5060405162000eda38038062000eda8339810180604052620000379190810190620004b8565b826000815181106200004557fe5b6020026020010151600090805190602001906200006492919062000205565b50826001815181106200007357fe5b6020026020010151600190805190602001906200009292919062000205565b5081600081518110620000a157fe5b602002602001015160028190555081600181518110620000bd57fe5b602002602001015160038190555081600081518110620000d957fe5b602002602001015142101562000114576001600460006101000a81548160ff021916908360028111156200010957fe5b02179055506200013a565b6000600460006101000a81548160ff021916908360028111156200013457fe5b02179055505b60008090505b81518110156200017d576200016f8282815181106200015b57fe5b60200260200101516200018760201b60201c565b808060010191505062000140565b5050505062000660565b600760008154809291906001019190505550604051806060016040528060075481526020018281526020016000815250600560006007548152602001908152602001600020600082015181600001556020820151816001019080519060200190620001f49291906200028c565b506040820151816002015590505050565b828054600181600116156101000203166002900490600052602060002090601f016020900481019282601f106200024857805160ff191683800117855562000279565b8280016001018555821562000279579182015b82811115620002785782518255916020019190600101906200025b565b5b50905062000288919062000313565b5090565b828054600181600116156101000203166002900490600052602060002090601f016020900481019282601f10620002cf57805160ff191683800117855562000300565b8280016001018555821562000300579182015b82811115620002ff578251825591602001919060010190620002e2565b5b5090506200030f919062000313565b5090565b6200033891905b80821115620003345760008160009055506001016200031a565b5090565b90565b600082601f8301126200034d57600080fd5b8151620003646200035e8262000587565b62000559565b9150818183526020840193506020810190508360005b83811015620003ae578151860162000393888262000445565b8452602084019350602083019250506001810190506200037a565b5050505092915050565b600082601f830112620003ca57600080fd5b8151620003e1620003db82620005b0565b62000559565b915081818352602084019350602081019050838560208402820111156200040757600080fd5b60005b838110156200043b5781620004208882620004a1565b8452602084019350602083019250506001810190506200040a565b5050505092915050565b600082601f8301126200045757600080fd5b81516200046e6200046882620005d9565b62000559565b915080825260208301602083018583830111156200048b57600080fd5b6200049883828462000610565b50505092915050565b600081519050620004b28162000646565b92915050565b600080600060608486031215620004ce57600080fd5b600084015167ffffffffffffffff811115620004e957600080fd5b620004f7868287016200033b565b935050602084015167ffffffffffffffff8111156200051557600080fd5b6200052386828701620003b8565b925050604084015167ffffffffffffffff8111156200054157600080fd5b6200054f868287016200033b565b9150509250925092565b6000604051905081810181811067ffffffffffffffff821117156200057d57600080fd5b8060405250919050565b600067ffffffffffffffff8211156200059f57600080fd5b602082029050602081019050919050565b600067ffffffffffffffff821115620005c857600080fd5b602082029050602081019050919050565b600067ffffffffffffffff821115620005f157600080fd5b601f19601f8301169050602081019050919050565b6000819050919050565b60005b838110156200063057808201518184015260208101905062000613565b8381111562000640576000848401525b50505050565b620006518162000606565b81146200065d57600080fd5b50565b61086a80620006706000396000f3fe608060405234801561001057600080fd5b50600436106100885760003560e01c80637284e4161161005b5780637284e41614610117578063a3ec138d14610135578063ed73690f14610165578063f748ca0d1461018357610088565b80630121b93f1461008d57806306fdde03146100a95780632d35a8a2146100c75780633477ee2e146100e5575b600080fd5b6100a760048036036100a29190810190610584565b6101a1565b005b6100b1610301565b6040516100be919061069f565b60405180910390f35b6100cf61039f565b6040516100dc9190610701565b60405180910390f35b6100ff60048036036100fa9190810190610584565b6103a5565b60405161010e9392919061071c565b60405180910390f35b61011f610467565b60405161012c919061069f565b60405180910390f35b61014f600480360361014a919081019061055b565b610505565b60405161015c9190610684565b60405180910390f35b61016d610525565b60405161017a9190610701565b60405180910390f35b61018b61052b565b6040516101989190610701565b60405180910390f35b600660003373ffffffffffffffffffffffffffffffffffffffff1673ffffffffffffffffffffffffffffffffffffffff16815260200190815260200160002060009054906101000a900460ff161561022e576040517f08c379a0000000000000000000000000000000000000000000000000000000008152600401610225906106e1565b60405180910390fd5b6007548111158015610241575060018110155b610280576040517f08c379a0000000000000000000000000000000000000000000000000000000008152600401610277906106c1565b60405180910390fd5b6001600660003373ffffffffffffffffffffffffffffffffffffffff1673ffffffffffffffffffffffffffffffffffffffff16815260200190815260200160002060006101000a81548160ff021916908315150217905550600560008281526020019081526020016000206002016000815480929190600101919050555050565b60008054600181600116156101000203166002900480601f0160208091040260200160405190810160405280929190818152602001828054600181600116156101000203166002900480156103975780601f1061036c57610100808354040283529160200191610397565b820191906000526020600020905b81548152906001019060200180831161037a57829003601f168201915b505050505081565b60075481565b6005602052806000526040600020600091509050806000015490806001018054600181600116156101000203166002900480601f0160208091040260200160405190810160405280929190818152602001828054600181600116156101000203166002900480156104575780601f1061042c57610100808354040283529160200191610457565b820191906000526020600020905b81548152906001019060200180831161043a57829003601f168201915b5050505050908060020154905083565b60018054600181600116156101000203166002900480601f0160208091040260200160405190810160405280929190818152602001828054600181600116156101000203166002900480156104fd5780601f106104d2576101008083540402835291602001916104fd565b820191906000526020600020905b8154815290600101906020018083116104e057829003601f168201915b505050505081565b60066020528060005260406000206000915054906101000a900460ff1681565b60035481565b60025481565b60008135905061054081610802565b92915050565b60008135905061055581610819565b92915050565b60006020828403121561056d57600080fd5b600061057b84828501610531565b91505092915050565b60006020828403121561059657600080fd5b60006105a484828501610546565b91505092915050565b6105b681610788565b82525050565b60006105c78261075a565b6105d18185610765565b93506105e18185602086016107be565b6105ea816107f1565b840191505092915050565b6000610602601a83610765565b91507f496e76616c69642063616e64696461746520746f20566f7465210000000000006000830152602082019050919050565b6000610642601883610765565b91507f566f7465722068617320616c726561647920566f7465642100000000000000006000830152602082019050919050565b61067e816107b4565b82525050565b600060208201905061069960008301846105ad565b92915050565b600060208201905081810360008301526106b981846105bc565b905092915050565b600060208201905081810360008301526106da816105f5565b9050919050565b600060208201905081810360008301526106fa81610635565b9050919050565b60006020820190506107166000830184610675565b92915050565b60006060820190506107316000830186610675565b818103602083015261074381856105bc565b90506107526040830184610675565b949350505050565b600081519050919050565b600082825260208201905092915050565b600061078182610794565b9050919050565b60008115159050919050565b600073ffffffffffffffffffffffffffffffffffffffff82169050919050565b6000819050919050565b60005b838110156107dc5780820151818401526020810190506107c1565b838111156107eb576000848401525b50505050565b6000601f19601f8301169050919050565b61080b81610776565b811461081657600080fd5b50565b610822816107b4565b811461082d57600080fd5b5056fea265627a7a723058209884ff5fff1d22a0758e275034e84b4d33e534fab37b07b8505499b63774c8be6c6578706572696d656e74616cf50037",
  "source": "pragma solidity >=0.4.21 <0.6.0;\npragma experimental ABIEncoderV2;\n\ncontract Election {\n\n    string public name;\n    string public description;\n    uint public sdate;\n    uint public edate;\n\n    enum Status {active, pending, finished}\n    Status status;\n\n    struct Candidate {\n        uint id;\n        string name;\n        uint voteCount;\n    }\n\n    mapping(uint => Candidate) public candidates;\n    mapping(address => bool) public voters;\n\n    uint public candidatesCount;\n\n    constructor (string[] memory _nd, uint[] memory _se, string[] memory _candidates) public {\n        name = _nd[0];\n        description = _nd[1];\n        sdate = _se[0];\n        edate = _se[1];\n        if(now < _se[0]) {\n            status = Status.pending;\n        } else {\n            status = Status.active;\n        }\n        for(uint i = 0; i < _candidates.length; i++) {\n            addCandidate(_candidates[i]);\n        }\n    }\n\n    function addCandidate (string memory _name) private {\n        candidatesCount ++;\n        candidates[candidatesCount] = Candidate(candidatesCount, _name, 0);\n    }\n\n    function vote (uint _candidate) public {\n        require(!voters[msg.sender], \"Voter has already Voted!\");\n        require(_candidate <= candidatesCount && _candidate >= 1, \"Invalid candidate to Vote!\");\n        voters[msg.sender] = true;\n        candidates[_candidate].voteCount++;\n    }\n\n}",
  "sourcePath": "/home/guest/blockchain/agora/blockchain/contracts/Election.sol",
  "compiler": {
    "name": "solc",
    "version": "0.5.8+commit.23d335f2.Emscripten.clang"
  },
  "schemaVersion": "3.0.16",
  "updatedAt": "2020-03-02T08:13:17.630Z",
  "devdoc": {
    "methods": {}
  },
  "userdoc": {
    "methods": {}
  }
}