{
  "contractName": "MainContract",
  "abi": [
    {
      "constant": true,
      "inputs": [
        {
          "name": "",
          "type": "uint256"
        }
      ],
      "name": "Elections",
      "outputs": [
        {
          "name": "",
          "type": "address"
        }
      ],
      "payable": false,
      "stateMutability": "view",
      "type": "function"
    },
    {
      "constant": true,
      "inputs": [],
      "name": "electionID",
      "outputs": [
        {
          "name": "",
          "type": "uint256"
        }
      ],
      "payable": false,
      "stateMutability": "view",
      "type": "function"
    },
    {
      "constant": false,
      "inputs": [
        {
          "name": "_nd",
          "type": "string[]"
        },
        {
          "name": "_se",
          "type": "uint256[]"
        },
        {
          "name": "_candidates",
          "type": "string[]"
        }
      ],
      "name": "createElection",
      "outputs": [
        {
          "name": "",
          "type": "address"
        }
      ],
      "payable": false,
      "stateMutability": "nonpayable",
      "type": "function"
    }
  ],
  "bytecode": "0x60806040526000805534801561001457600080fd5b50611761806100246000396000f3fe60806040523480156200001157600080fd5b5060043610620000465760003560e01c80631e9598e2146200004b578063a1768d241462000081578063f8e78e9a14620000b7575b600080fd5b62000069600480360362000063919081019062000423565b620000d9565b604051620000789190620005de565b60405180910390f35b6200009f600480360362000099919081019062000382565b6200010c565b604051620000ae9190620005de565b60405180910390f35b620000c1620001f1565b604051620000d091906200064d565b60405180910390f35b60016020528060005260406000206000915054906101000a900473ffffffffffffffffffffffffffffffffffffffff1681565b6000808484846040516200012090620001f7565b6200012e93929190620005fb565b604051809103906000f0801580156200014b573d6000803e3d6000fd5b509050600080815480929190600101919050555080600160008054815260200190815260200160002060006101000a81548173ffffffffffffffffffffffffffffffffffffffff021916908373ffffffffffffffffffffffffffffffffffffffff160217905550600160008054815260200190815260200160002060009054906101000a900473ffffffffffffffffffffffffffffffffffffffff169150509392505050565b60005481565b610eda806200084e83390190565b600082601f8301126200021757600080fd5b81356200022e620002288262000698565b6200066a565b9150818183526020840193506020810190508360005b838110156200027857813586016200025d88826200030f565b84526020840193506020830192505060018101905062000244565b5050505092915050565b600082601f8301126200029457600080fd5b8135620002ab620002a582620006c1565b6200066a565b91508181835260208401935060208101905083856020840282011115620002d157600080fd5b60005b83811015620003055781620002ea88826200036b565b845260208401935060208301925050600181019050620002d4565b5050505092915050565b600082601f8301126200032157600080fd5b8135620003386200033282620006ea565b6200066a565b915080825260208301602083018583830111156200035557600080fd5b62000362838284620007dd565b50505092915050565b6000813590506200037c8162000833565b92915050565b6000806000606084860312156200039857600080fd5b600084013567ffffffffffffffff811115620003b357600080fd5b620003c18682870162000205565b935050602084013567ffffffffffffffff811115620003df57600080fd5b620003ed8682870162000282565b925050604084013567ffffffffffffffff8111156200040b57600080fd5b620004198682870162000205565b9150509250925092565b6000602082840312156200043657600080fd5b600062000446848285016200036b565b91505092915050565b60006200045d83836200057b565b905092915050565b6000620004738383620005bc565b60208301905092915050565b6200048a816200079f565b82525050565b60006200049d8262000731565b620004a981856200076c565b935083602082028501620004bd8562000717565b8060005b85811015620004ff5784840389528151620004dd85826200044f565b9450620004ea8362000752565b925060208a01995050600181019050620004c1565b50829750879550505050505092915050565b60006200051e826200073c565b6200052a81856200077d565b9350620005378362000724565b8060005b838110156200056e57815162000552888262000465565b97506200055f836200075f565b9250506001810190506200053b565b5085935050505092915050565b6000620005888262000747565b6200059481856200078e565b9350620005a6818560208601620007ec565b620005b18162000822565b840191505092915050565b620005c781620007d3565b82525050565b620005d881620007d3565b82525050565b6000602082019050620005f560008301846200047f565b92915050565b6000606082019050818103600083015262000617818662000490565b905081810360208301526200062d818562000511565b9050818103604083015262000643818462000490565b9050949350505050565b6000602082019050620006646000830184620005cd565b92915050565b6000604051905081810181811067ffffffffffffffff821117156200068e57600080fd5b8060405250919050565b600067ffffffffffffffff821115620006b057600080fd5b602082029050602081019050919050565b600067ffffffffffffffff821115620006d957600080fd5b602082029050602081019050919050565b600067ffffffffffffffff8211156200070257600080fd5b601f19601f8301169050602081019050919050565b6000602082019050919050565b6000602082019050919050565b600081519050919050565b600081519050919050565b600081519050919050565b6000602082019050919050565b6000602082019050919050565b600082825260208201905092915050565b600082825260208201905092915050565b600082825260208201905092915050565b6000620007ac82620007b3565b9050919050565b600073ffffffffffffffffffffffffffffffffffffffff82169050919050565b6000819050919050565b82818337600083830152505050565b60005b838110156200080c578082015181840152602081019050620007ef565b838111156200081c576000848401525b50505050565b6000601f19601f8301169050919050565b6200083e81620007d3565b81146200084a57600080fd5b5056fe60806040523480156200001157600080fd5b5060405162000eda38038062000eda8339810180604052620000379190810190620004b8565b826000815181106200004557fe5b6020026020010151600090805190602001906200006492919062000205565b50826001815181106200007357fe5b6020026020010151600190805190602001906200009292919062000205565b5081600081518110620000a157fe5b602002602001015160028190555081600181518110620000bd57fe5b602002602001015160038190555081600081518110620000d957fe5b602002602001015142101562000114576001600460006101000a81548160ff021916908360028111156200010957fe5b02179055506200013a565b6000600460006101000a81548160ff021916908360028111156200013457fe5b02179055505b60008090505b81518110156200017d576200016f8282815181106200015b57fe5b60200260200101516200018760201b60201c565b808060010191505062000140565b5050505062000660565b600760008154809291906001019190505550604051806060016040528060075481526020018281526020016000815250600560006007548152602001908152602001600020600082015181600001556020820151816001019080519060200190620001f49291906200028c565b506040820151816002015590505050565b828054600181600116156101000203166002900490600052602060002090601f016020900481019282601f106200024857805160ff191683800117855562000279565b8280016001018555821562000279579182015b82811115620002785782518255916020019190600101906200025b565b5b50905062000288919062000313565b5090565b828054600181600116156101000203166002900490600052602060002090601f016020900481019282601f10620002cf57805160ff191683800117855562000300565b8280016001018555821562000300579182015b82811115620002ff578251825591602001919060010190620002e2565b5b5090506200030f919062000313565b5090565b6200033891905b80821115620003345760008160009055506001016200031a565b5090565b90565b600082601f8301126200034d57600080fd5b8151620003646200035e8262000587565b62000559565b9150818183526020840193506020810190508360005b83811015620003ae578151860162000393888262000445565b8452602084019350602083019250506001810190506200037a565b5050505092915050565b600082601f830112620003ca57600080fd5b8151620003e1620003db82620005b0565b62000559565b915081818352602084019350602081019050838560208402820111156200040757600080fd5b60005b838110156200043b5781620004208882620004a1565b8452602084019350602083019250506001810190506200040a565b5050505092915050565b600082601f8301126200045757600080fd5b81516200046e6200046882620005d9565b62000559565b915080825260208301602083018583830111156200048b57600080fd5b6200049883828462000610565b50505092915050565b600081519050620004b28162000646565b92915050565b600080600060608486031215620004ce57600080fd5b600084015167ffffffffffffffff811115620004e957600080fd5b620004f7868287016200033b565b935050602084015167ffffffffffffffff8111156200051557600080fd5b6200052386828701620003b8565b925050604084015167ffffffffffffffff8111156200054157600080fd5b6200054f868287016200033b565b9150509250925092565b6000604051905081810181811067ffffffffffffffff821117156200057d57600080fd5b8060405250919050565b600067ffffffffffffffff8211156200059f57600080fd5b602082029050602081019050919050565b600067ffffffffffffffff821115620005c857600080fd5b602082029050602081019050919050565b600067ffffffffffffffff821115620005f157600080fd5b601f19601f8301169050602081019050919050565b6000819050919050565b60005b838110156200063057808201518184015260208101905062000613565b8381111562000640576000848401525b50505050565b620006518162000606565b81146200065d57600080fd5b50565b61086a80620006706000396000f3fe608060405234801561001057600080fd5b50600436106100885760003560e01c80637284e4161161005b5780637284e41614610117578063a3ec138d14610135578063ed73690f14610165578063f748ca0d1461018357610088565b80630121b93f1461008d57806306fdde03146100a95780632d35a8a2146100c75780633477ee2e146100e5575b600080fd5b6100a760048036036100a29190810190610584565b6101a1565b005b6100b1610301565b6040516100be919061069f565b60405180910390f35b6100cf61039f565b6040516100dc9190610701565b60405180910390f35b6100ff60048036036100fa9190810190610584565b6103a5565b60405161010e9392919061071c565b60405180910390f35b61011f610467565b60405161012c919061069f565b60405180910390f35b61014f600480360361014a919081019061055b565b610505565b60405161015c9190610684565b60405180910390f35b61016d610525565b60405161017a9190610701565b60405180910390f35b61018b61052b565b6040516101989190610701565b60405180910390f35b600660003373ffffffffffffffffffffffffffffffffffffffff1673ffffffffffffffffffffffffffffffffffffffff16815260200190815260200160002060009054906101000a900460ff161561022e576040517f08c379a0000000000000000000000000000000000000000000000000000000008152600401610225906106e1565b60405180910390fd5b6007548111158015610241575060018110155b610280576040517f08c379a0000000000000000000000000000000000000000000000000000000008152600401610277906106c1565b60405180910390fd5b6001600660003373ffffffffffffffffffffffffffffffffffffffff1673ffffffffffffffffffffffffffffffffffffffff16815260200190815260200160002060006101000a81548160ff021916908315150217905550600560008281526020019081526020016000206002016000815480929190600101919050555050565b60008054600181600116156101000203166002900480601f0160208091040260200160405190810160405280929190818152602001828054600181600116156101000203166002900480156103975780601f1061036c57610100808354040283529160200191610397565b820191906000526020600020905b81548152906001019060200180831161037a57829003601f168201915b505050505081565b60075481565b6005602052806000526040600020600091509050806000015490806001018054600181600116156101000203166002900480601f0160208091040260200160405190810160405280929190818152602001828054600181600116156101000203166002900480156104575780601f1061042c57610100808354040283529160200191610457565b820191906000526020600020905b81548152906001019060200180831161043a57829003601f168201915b5050505050908060020154905083565b60018054600181600116156101000203166002900480601f0160208091040260200160405190810160405280929190818152602001828054600181600116156101000203166002900480156104fd5780601f106104d2576101008083540402835291602001916104fd565b820191906000526020600020905b8154815290600101906020018083116104e057829003601f168201915b505050505081565b60066020528060005260406000206000915054906101000a900460ff1681565b60035481565b60025481565b60008135905061054081610802565b92915050565b60008135905061055581610819565b92915050565b60006020828403121561056d57600080fd5b600061057b84828501610531565b91505092915050565b60006020828403121561059657600080fd5b60006105a484828501610546565b91505092915050565b6105b681610788565b82525050565b60006105c78261075a565b6105d18185610765565b93506105e18185602086016107be565b6105ea816107f1565b840191505092915050565b6000610602601a83610765565b91507f496e76616c69642063616e64696461746520746f20566f7465210000000000006000830152602082019050919050565b6000610642601883610765565b91507f566f7465722068617320616c726561647920566f7465642100000000000000006000830152602082019050919050565b61067e816107b4565b82525050565b600060208201905061069960008301846105ad565b92915050565b600060208201905081810360008301526106b981846105bc565b905092915050565b600060208201905081810360008301526106da816105f5565b9050919050565b600060208201905081810360008301526106fa81610635565b9050919050565b60006020820190506107166000830184610675565b92915050565b60006060820190506107316000830186610675565b818103602083015261074381856105bc565b90506107526040830184610675565b949350505050565b600081519050919050565b600082825260208201905092915050565b600061078182610794565b9050919050565b60008115159050919050565b600073ffffffffffffffffffffffffffffffffffffffff82169050919050565b6000819050919050565b60005b838110156107dc5780820151818401526020810190506107c1565b838111156107eb576000848401525b50505050565b6000601f19601f8301169050919050565b61080b81610776565b811461081657600080fd5b50565b610822816107b4565b811461082d57600080fd5b5056fea265627a7a723058207a043df9bebe0e11f95e569978cb8703d30b62bd73d1d4d92e58c69706dca0ba6c6578706572696d656e74616cf50037a265627a7a72305820ff4bd541e79496cf54f0522cff1d0e9e69445fb11bb807267a1a8ecde500d97a6c6578706572696d656e74616cf50037",
  "source": "pragma solidity >=0.4.21 <0.6.0;\npragma experimental ABIEncoderV2;\n\nimport './Election.sol';\n\ncontract MainContract {\n\n    uint public electionID = 0;\n    mapping (uint => address) public Elections;\n\n    function createElection (string[] memory _nd, uint[] memory _se, string[] memory _candidates) public returns(address) {\n        Election election = new Election(_nd, _se, _candidates);\n        electionID++;\n        Elections[electionID] = address(election);\n        return Elections[electionID];\n    }\n\n}",
  "sourcePath": "/home/guest/blockchain/agora/contracts/MainContract.sol",
  "compiler": {
    "name": "solc",
    "version": "0.5.8+commit.23d335f2.Emscripten.clang"
  },
  "schemaVersion": "3.0.16",
  "updatedAt": "2020-03-30T21:04:39.655Z",
  "devdoc": {
    "methods": {}
  },
  "userdoc": {
    "methods": {}
  }
}